:020000040000FA
:0400000007EF00F016
:0A00080047823CED08F06FEF0EF0A8
:1010000000506F652020200047616C69622000530A
:10101000656C696D69004E6573696D69004861743E
:10102000617969005A7765696720004E61626920BD
:10103000200041757374656E00202323232323232E
:101040002323232323232323002023456E74657247
:1010500020566F7465727323002023456C6563749A
:10106000726F20566F74652300202054696D6520CF
:101070006C656674203A00000600E1CF11F0E2CF03
:1010800012F0D9CF13F0DACF14F0F3CF15F0F4CF7C
:1010900016F09DA04EEF08F050EF08F075EF08F045
:1010A0009EA055EF08F057EF08F075EF08F09E90FE
:1010B000332A980E3318D8A460EF08F062EF08F0D6
:1010C00075EF08F0000E336E020E2E18D8A46BEFE9
:1010D00008F06DEF08F075EF08F0010E386E75EF4F
:1010E00008F075EF08F075EF08F0F2A67AEF08F057
:1010F0007CEF08F029EF09F0F2A081EF08F083EF10
:1011000008F029EF09F081CF31F0F2902E50D8A4E9
:101110008CEF08F08EEF08F0AAEF08F031AE93EFF5
:1011200008F095EF08F099EF08F0010E2E6E99EF98
:1011300008F031AC9EEF08F0A0EF08F029EF09F0BD
:10114000305056EC0FF0306E010E376E29EF09F07B
:1011500029EF09F02E04D8A4B0EF08F0B2EF08F0A0
:10116000CEEF08F031AEB7EF08F0B9EF08F0BDEF01
:1011700008F0020E2E6EBDEF08F031ACC2EF08F0A1
:10118000C4EF08F029EF09F02F5056EC0FF02F6E46
:10119000010E376E29EF09F029EF09F02C50D8A481
:1011A000D4EF08F0D6EF08F029EF09F031AEDBEF0D
:1011B00008F0DDEF08F029EF09F02D50010D1F0EAA
:1011C000F324D96E000EF420DA6EDF2A2A2A010EEB
:1011D000366E2D50010D1F0EF324D96E000EF42033
:1011E000DA6E2950010D1F0EF324E16E000EF4207B
:1011F000E26EDE50E65CD8B000EF09F002EF09F0D5
:1012000006EF09F02DC029F006EF09F02A500E6E06
:101210000F6A30500A0D2F50F326000EF4220E50A4
:10122000F31807E10F50F418D8A419EF09F01BEFD9
:1012300009F029EF09F0010E2C6E29EF09F029EFD2
:1012400009F029EF09F029EF09F029EF09F029EF5A
:1012500009F0F2AA2EEF09F030EF09F07EEF09F065
:10126000F2A435EF09F037EF09F07EEF09F08AECD0
:101270000AF0F294274A282A342A3C0E3418D8A4BB
:1012800044EF09F046EF09F057EF09F0000E346E15
:10129000020E2E18D8A44FEF09F051EF09F057EFC6
:1012A00009F081EC0FF057EF09F057EF09F02C50DF
:1012B000D8A45DEF09F05FEF09F07EEF09F0980E1A
:1012C00027182810D8A467EF09F069EF09F07EEF1E
:1012D00009F0000E286E000E276E020E2E18D8A4FC
:1012E00074EF09F076EF09F07EEF09F0010E356E2C
:1012F0007EEF09F07EEF09F07EEF09F09DAC83EF01
:1013000009F085EF09F0B4EF09F09EAC8AEF09F01F
:101310008CEF09F0B4EF09F0020E2E18D8A493EF69
:1013200009F095EF09F0B4EF09F09E9CC4500F6EE0
:101330000E6AC3500E24176E000E0F20186E17C0D1
:101340000EF018C00FF0070E106ED8900F320E324C
:10135000102EA5EF09F00E502D6E010E366E9D9CDD
:10136000B4EF09F0B4EF09F016C0F4FF15C0F3FFB5
:1013700014C0DAFF13C0D9FF12C0E2FF11C0E1FFB1
:1013800047921100000E286E000E276E000E336E7D
:10139000000E326E000E396E070E3964D2EF09F07E
:1013A000D4EF09F0D8EF09F0EDEF09F0EDEF09F017
:1013B0003950010D1F0EF324D96E000EF420DA6EA1
:1013C000000EDF6E392A070E3964E9EF09F0EBEF02
:1013D00009F0D8EF09F0EDEF09F0000E306E000EC5
:1013E0002F6E000E2E6E090E466E010E456E000E1B
:1013F0002D6E000E2C6E000E2A6E000EF26ED08E38
:10140000000E926E000E936E000E946E000E956E9E
:10141000020E966E000E976E000E986E000E996E7C
:10142000000E9A6E000E896E000E896E000E8A6E96
:10143000000E8B6E000E8C6E000E8D6E000E8E6E8A
:10144000000E8F6E000E906E000E916E9080C30E97
:101450001D6ECD0EE82EFED71D2EFCD700F0C30E5C
:101460001D6ECD0EE82EFED71D2EFCD700F00F0E00
:101470008316300E83121BEC0FF04E0E1D6EEB0E1A
:10148000E82EFED71D2EFCD700F00F0E8316300E6F
:1014900083121BEC0FF0040E1D6EE40EE82EFED737
:1014A0001D2EFCD700D00F0E8316300E83121BECBE
:1014B0000FF01A0E1D6EF80EE82EFED71D2EFCD76B
:1014C00000D00F0E8316838A1BEC0FF01A0E1D6ED0
:1014D000F80EE82EFED71D2EFCD700D02C0E05EC02
:1014E0000FF00C0E05EC0FF0010E05EC0FF0800E66
:1014F00005EC0FF0590E1B6E100E1C6E3AEC0EF040
:10150000C00E05EC0FF0390E1B6E100E1C6E3AEC7F
:101510000EF012002950010D1F0EF324D96E000E9B
:10152000F420DA6EDF500D6E000E096E000E0A6EAA
:10153000000E0B6E000E0C6E2A50D8A4A2EF0AF01B
:10154000A4EF0AF0AEEF0AF00A0E0B6E0A0E0C6E54
:101550000A0E096E0A0E0A6EE0EF0AF02950030D1A
:10156000600EF324D96E000EF420DA6EDF50D00F37
:101570000B6E2950030D010EF326000EF422600EAF
:10158000F324D96E000EF420DA6EDF50D00F0C6E0B
:101590000DC001F0026A000E046E0A0E036E5EECCE
:1015A0000CF00150096E0DC001F0026A000E046ECD
:1015B0000A0E036E40EC0DF001500A6EE0EF0AF0E7
:1015C00090A6E5EF0AF0E7EF0AF0F5EF0AF0909643
:1015D00090800B50010D3A0EF324D96E000EF420CA
:1015E000DA6EDF50916E3AEF0BF090A0FAEF0AF04E
:1015F000FCEF0AF00AEF0BF0909090820C50010D76
:101600003A0EF324D96E000EF420DA6EDF50916E9C
:101610003AEF0BF090A20FEF0BF011EF0BF01FEF72
:101620000BF0909290840950010D3A0EF324D96E7C
:10163000000EF420DA6EDF50916E3AEF0BF090A4BA
:1016400024EF0BF026EF0BF03AEF0BF0909490861E
:101650000A50010D3A0EF324D96E000EF420DA6E12
:10166000DF50916E3AEF0BF03AEF0BF03AEF0BF0E0
:101670003AEF0BF01200C2EC09F03FEF0BF084A23E
:1016800044EF0BF046EF0BF03FEF0BF04AEF0BF09F
:101690004AEF0BF084B24FEF0BF051EF0BF04AEF33
:1016A0000BF053EF0BF001EC0EF0BBEC0EF059EF2A
:1016B0000BF03750D8B45FEF0BF061EF0BF067EF32
:1016C0000BF030EC0FF0000E376E67EF0BF0020EF0
:1016D0002E18D8A46EEF0BF070EF0BF059EF0BF053
:1016E00043EC0FF07AEF0BF059EF0BF059EF0BF0E2
:1016F0007AEF0BF03804D8A480EF0BF082EF0BF0F8
:101700008AEF0BF09CEC0EF0D9EC0EF0000E386E68
:101710008AEF0BF03504D8A490EF0BF092EF0BF0AA
:10172000B0EF0BF03250D8B498EF0BF09AEF0BF00B
:10173000A4EF0BF0C10E05EC0FF03E0EEFEC0EF037
:10174000000E326EB0EF0BF0C10E05EC0FF0200E64
:10175000EFEC0EF0010E326EB0EF0BF0B0EF0BF0CD
:101760003604D8A4B6EF0BF0B8EF0BF0BEEF0BF0D9
:10177000ACEC0DF0000E366EBEEF0BF02C04D8A4CE
:10178000C4EF0BF0C6EF0BF07AEF0BF0CEEF0BF0DF
:10179000CEEF0BF07AEF0BF07AEF0BF09D908150CB
:1017A000F296D3EF0BF03604D8A4D9EF0BF0DBEFB1
:1017B0000BF0D3EF0BF0ACEC0DF0000E366ED3EF68
:1017C0000BF0D3EF0BF0D3EF0BF007EF00F0000EB0
:1017D0000001796F1CBEF1EF0BF0EFEF0BF0F9EFAA
:1017E0000BF01B6C1C1ED8B01C2A010E796FF9EF90
:1017F0000BF01ABE00EF0CF0FEEF0BF008EF0CF050
:10180000196C1A1ED8B01A2A010E791B08EF0CF0B9
:10181000000E7B6F000E7A6F1B501C10D8B413EFB4
:101820000CF015EF0CF049EF0CF0010E786F1FEF84
:101830000CF0D8901B361C36782B1FEF0CF01CAE2A
:1018400024EF0CF026EF0CF019EF0CF02AEF0CF05F
:101850002AEF0CF0D8907A377B371B50195C1C505C
:101860001A58D8A036EF0CF038EF0CF03FEF0CF020
:101870001B50195E1C501A5A7A813FEF0CF0D89019
:101880001C321B32782F2AEF0CF049EF0CF049EF95
:101890000CF07951D8B44FEF0CF051EF0CF057EF3A
:1018A0000CF07A6D7B1FD8B07B2B57EF0CF07AC011
:1018B00019F07BC01AF05DEF0CF01200000E066EFE
:1018C00004BE67EF0CF065EF0CF06FEF0CF0036CEB
:1018D000041ED8B0042A010E066E6FEF0CF002BE93
:1018E00076EF0CF074EF0CF07EEF0CF0016C021E42
:1018F000D8B0022A010E061A7EEF0CF0000E086E18
:10190000000E076E03500410D8B489EF0CF08BEF73
:101910000CF0BFEF0CF0010E056E95EF0CF0D890B7
:1019200003360436052A95EF0CF004AE9AEF0CF05E
:101930009CEF0CF08FEF0CF0A0EF0CF0A0EF0CF090
:10194000D890073608360350015C04500258D8A0DE
:10195000ACEF0CF0AEEF0CF0B5EF0CF00350015E05
:101960000450025A0780B5EF0CF0D89004320332CD
:10197000052EA0EF0CF0BFEF0CF0BFEF0CF00650FF
:10198000D8B4C5EF0CF0C7EF0CF0CDEF0CF0076C3E
:10199000081ED8B0082ACDEF0CF007C001F008C02F
:1019A00002F0D3EF0CF01200000E1E6E1ABEDDEF37
:1019B0000CF0DBEF0CF0E5EF0CF0196C1A1ED8B050
:1019C0001A2A010E1E6EE5EF0CF01CBEECEF0CF0B7
:1019D000EAEF0CF0F2EF0CF01B6C1C1ED8B01C2AC6
:1019E000F2EF0CF01B501C10D8B4F9EF0CF0FBEF29
:1019F0000CF02BEF0DF0010E1D6E05EF0DF0D890E1
:101A00001B361C361D2A05EF0DF01CAE0AEF0DF03B
:101A10000CEF0DF0FFEF0CF010EF0DF010EF0DF0EC
:101A20001B50195C1C501A58D8A019EF0DF01BEF71
:101A30000DF021EF0DF01B50195E1C501A5A21EFCA
:101A40000DF0D8901C321B321D2E10EF0DF02BEF35
:101A50000DF02BEF0DF01E50D8B431EF0DF033EF39
:101A60000DF039EF0DF0196C1A1ED8B01A2A39EFA3
:101A70000DF019C019F01AC01AF03FEF0DF0120066
:101A8000000E066E02BE49EF0DF047EF0DF051EF6C
:101A90000DF0016C021ED8B0022A010E066E51EF45
:101AA0000DF004BE58EF0DF056EF0DF05EEF0DF0A7
:101AB000036C041ED8B0042A5EEF0DF0035004102E
:101AC000D8B465EF0DF067EF0DF097EF0DF0010E54
:101AD000056E71EF0DF0D89003360436052A71EFCC
:101AE0000DF004AE76EF0DF078EF0DF06BEF0DF02A
:101AF0007CEF0DF07CEF0DF00350015C04500258B8
:101B0000D8A085EF0DF087EF0DF08DEF0DF00350AD
:101B1000015E0450025A8DEF0DF0D890043203326A
:101B2000052E7CEF0DF097EF0DF097EF0DF00650BE
:101B3000D8B49DEF0DF09FEF0DF0A5EF0DF0016C07
:101B4000021ED8B0022AA5EF0DF001C001F002C0BC
:101B500002F0ABEF0DF01200C20E05EC0FF02D50AD
:101B6000030D600EF3241B6E000EF4201C6E3AEC85
:101B70000EF0200EEFEC0EF02D50070D010EF324A9
:101B80001B6E100EF4201C6E3AEC0EF0200EEFECE3
:101B90000EF03A0EEFEC0EF02D50010D1F0EF32457
:101BA000D96E000EF420DA6EDF5000017E6F000E59
:101BB0007C6F000E7D6F7EC019F01A6A000E1C6EDD
:101BC0000A0E1B6EE7EC0BF0195000017C6F7EC013
:101BD00019F01A6A000E1C6E0A0E1B6ED4EC0CF083
:101BE000195000017D6F7C51300F7F6F7F51EFECFA
:101BF0000EF000017D51300F7F6F7F51EFEC0EF042
:101C00001200000E196E000E1A6E000E1B6E2FEFE2
:101C10000EF0000E1A6E22EF0EF0000E1B6E15EF86
:101C20000EF000F01B2A15EF0EF0F90E1B641BEFEF
:101C30000EF01DEF0EF011EF0EF01FEF0EF01A2A4E
:101C400022EF0EF0C70E1A6428EF0EF02AEF0EF006
:101C50000DEF0EF02CEF0EF0192A2FEF0EF03B0EC9
:101C6000196435EF0EF037EF0EF009EF0EF039EF93
:101C70000EF0120053EF0EF01BC0F6FF1CC0F7FF72
:101C8000000EF86E0F0EF76403D00800F55005D073
:101C9000F6CFE9FFF7CFEAFFEF50EFEC0EF01B4A6B
:101CA0001C2A53EF0EF01BC0F6FF1CC0F7FF000EFE
:101CB000F86E0F0EF76403D00800F55005D0F6CF8C
:101CC000E9FFF7CFEAFFEF500009D8A46AEF0EF062
:101CD0006CEF0EF03CEF0EF06EEF0EF01200D20E35
:101CE000F66E1E0EF76E000EF86E00EE60F010EE4F
:101CF00018F00900F5CFEEFFE550E150FAE1160EBD
:101D0000F66E1F0EF76E000EF86E00EE3AF010EE53
:101D10000DF00900F5CFEEFFE550E150FAE100EEDD
:101D20001FF01B0EEE6AE806FDE147904792000E99
:101D3000F86E00013BEF0BF04550D8A4A2EF0EF077
:101D4000A4EF0EF0B7EF0EF04650D8A4AAEF0EF0B5
:101D5000ACEF0EF0B0EF0EF0010E2C6EBAEF0EF0FD
:101D60004606090E456EBAEF0EF0BAEF0EF04506C4
:101D7000BAEF0EF012008150F290C00E936E000E7A
:101D8000966EF1809E909D90C80EF26ED59ECD907D
:101D900075EC0FF0800E05EC0FF0490E1B6E100E67
:101DA0001C6E3AEC0EF0C00E05EC0FF030EC0FF0AC
:101DB0001200800E05EC0FF0690E1B6E100E1C6EEB
:101DC0003AEC0EF04650300F1D6E1D50EFEC0EF049
:101DD0004550300F1D6E1D50EFEC0EF012001A6EC4
:101DE0008A8483500F0B836E1A50F00B8310836E1E
:101DF0001BEC0FF083500F0B836E1A38F00BF00BB7
:101E00008310836E1BEC0FF012001A6E8A948350BD
:101E10000F0B836E1A50F00B8310836E1BEC0FF0C8
:101E200083500F0B836E1A38F00BF00B8310836E08
:101E30001BEC0FF01200F2968A8AF2860D0E196ED4
:101E4000FC0EE82EFED7192EFCD7F2968A9AF2865F
:101E50000D0E196EFC0EE82EFED7192EFCD71200BF
:101E6000C00E05EC0FF0200EEFEC0EF03050300FEE
:101E70001B6E1B50EFEC0EF02F50300F1B6E1B50E3
:101E8000EFEC0EF01200F1849F80C50ED56ECD8E62
:101E9000CD8C000ED76E000ED66E000ECF6E000EEB
:101EA000CE6E9D80F28AD58ECD801200016E090E15
:101EB0000118D8A45EEF0FF060EF0FF065EF0FF0A0
:101EC000000E68EF0FF068EF0FF0012868EF0FF0D9
:101ED00012003138003634003334003233003333EB
:101EE00000363700363300393900010E05EC0FF0AB
:101EF0001A0E1B6EF80EE82EFED71B2EFCD700D054
:101F00001200330EC26E020EC16EC08E99889F8C75
:101F10009D8C9E9C12003F065B4F666D7C077F6F19
:031F200040010974
:020000040020DA
:08000000FFFFFFFFFFFFFFFF00
:020000040030CA
:0E000000FF06191EF38381FFFFC0FFE0FF40E3
:00000001FF
