:020000040000FA
:060000005DEF16F0120096
:020006001200E6
:0600080080EF19F0120068
:0600180000EF18F01200D9
:100050000000010003BC2B20010001080002AC24B9
:10006000000200010800017A2300030001000000E3
:060070000000000000008A
:10010000D9CFE6FFE1CFD9FF030EE126D950010F89
:10011000E96EDACFEAFFA00EEE6E000EED6EDF6A3A
:10012000100EDF5C3DE2010EDBCFE9FF020EDBCFFC
:10013000EAFFEF500F0B106EFD0EDB50105C29E153
:10014000DF50116AB00F106E000E1122010E10C0A8
:10015000DBFF020E11C0DBFF010EDBCFE9FF020E59
:10016000DBCFEAFFEF50F00BE66E010EDBCFE9FFCD
:10017000020EDBCFEAFFE552E750EF6E010EDBCF58
:10018000E9FF020EDBCFEAFFFE0EDB50EF26000E8A
:1001900009D0010EDB2A020E01E3DB2ADF2AC0D7D9
:1001A000030E00D0106E030EE15C02E2E16AE5523C
:1001B000E16E1050E552E7CFD9FF1200D9CFE6FF2C
:1001C000E1CFD9FF030EE126D950010FE96EDACF56
:1001D000EAFFA00EEE6E000EED6EDF6A100EDF5C21
:1001E00034E2010EDBCFE9FF020EDBCFEAFFEF5076
:1001F0000F0B106EFC0EDB50105C20E1DF50116A1B
:10020000B00F106E000E1122010E10C0DBFF020EA7
:1002100011C0DBFF010EDBCFE9FF020EDBCFEAFFEF
:10022000EF500F0BE66EFD0EDBCFE9FFFE0EDBCFCE
:10023000EAFFE552E750EF6E000E09D0010EDB2A0F
:10024000020E01E3DB2ADF2AC9D7030E00D0106EAD
:10025000030EE15C02E2E16AE552E16E1050E55204
:10026000E7CFD9FF1200D9CFE6FFE1CFD9FF0001D8
:10027000603514E2100E0001E76E6019E8AE02D09E
:10028000E73402D0E750605D09E2FD0EDBCFE9FF05
:10029000FE0EDBCFEAFF60C0EFFF08D0FD0EDBCF24
:1002A000E9FFFE0EDBCFEAFF100EEF6E000E00D06E
:1002B000E552E7CFD9FF1200D9CFE6FFE1CFD9FF52
:1002C000030EE126D950010FE96EDACFEAFFA00E46
:1002D000EE6E000EED6EDF6A100EDF5C28E2010E9E
:1002E000DBCFE9FF020EDBCFEAFFEF500F0B106E02
:1002F000FE0EDB50105C14E1010EDBCFE9FF020EB5
:10030000DBCFEAFFEF50E00BE66EFC0EDBCFE9FF40
:10031000FD0EDBCFEAFFE552E750EF6E000E09D08D
:10032000010EDB2A020E01E3DB2ADF2AD5D7030EFA
:1003300000D0106E030EE15C02E2E16AE552E16E6C
:100340001050E552E7CFD9FF1200D9CFE6FFE1CF39
:10035000D9FF030EE126D950010FE96EDACFEAFF8B
:10036000A00EEE6E000EED6EDF6A100EDF5C57E23F
:10037000010EDBCFE9FF020EDBCFEAFFEF500F0BE0
:10038000106EFE0EDB50105C43E1010EDBCFE9FF87
:10039000020EDBCFEAFFEF50E00B16E10F0E106EFE
:1003A000010EDBCFE9FF020EDBCFEAFF1050EF16A4
:1003B000200E106E010EDBCFE9FF020EDBCFEAFF4D
:1003C0001050EF2616D922D0DF50116AB00F106EF0
:1003D000000E1122010E10C0DBFF020E11C0DBFF68
:1003E000010EDBCFE9FF020EDBCFEAFFEF50F00B8F
:1003F000106EF00E105C0AE2100E106E010EDBCFD4
:10040000E9FF020EDBCFEAFF1050EF26000E09D005
:10041000010EDB2A020E01E3DB2ADF2AA6D7030E38
:1004200000D0106E030EE15C02E2E16AE552E16E7B
:100430001050E552E7CFD9FF1200D9CFE6FFE1CF48
:10044000D9FF030EE126D950010FE96EDACFEAFF9A
:10045000A00EEE6E000EED6EDF6A100EDF5C54E251
:10046000010EDBCFE9FF020EDBCFEAFFEF500F0BEF
:100470000001605D42E1DF50116AB00F106E000EA6
:100480001122010E10C0DBFF020E11C0DBFF010EB6
:10049000DBCFE9FF020EDBCFEAFFEF50E00B20E1FC
:1004A000DF50116AA00F106E000E1122010E10C055
:1004B000DBFF020E11C0DBFF0F0E106E010EDBCF53
:1004C000E9FF020EDBCFEAFF1050EF16010EDBCF83
:1004D000E9FF020EDBCFEAFFF29C1BEF0EF00DD01E
:1004E000100E106E010EDBCFE9FF020EDBCFEAFF2C
:1004F0001050EF5EF29C1BEF0EF0010EDB2A020E95
:1005000001E3DB2ADF2AA9D7000E00D0106E030E0C
:10051000E15C02E2E16AE552E16E1050E552E7CF9C
:10052000D9FF1200D9CFE6FFE1CFD9FF030EE126B4
:10053000D950010FE96EDACFEAFFA00EEE6E000E81
:10054000ED6EDF6A100EDF5C43E2010EDBCFE9FFE8
:10055000020EDBCFEAFFEF500F0B0001605D10E1F0
:100560000F0E106E010EDBCFE9FF020EDBCFEAFFAC
:100570001050EF16010EDBCFE9FF020EDBCFEAFFD2
:10058000010EDBCFE9FF020EDBCFEAFFEF500F0BCE
:10059000106EFE0EDB50105C14E10F0E106E010E9B
:1005A000DBCFE9FF020EDBCFEAFF1050EF16200E83
:1005B000106E010EDBCFE9FF020EDBCFEAFF105019
:1005C000EF26010EDB2A020E01E3DB2ADF2ABAD76F
:1005D000F29C1BEF0EF0000E00D0106E030EE15CDB
:1005E00002E2E16AE552E16E1050E552E7CFD9FF31
:1005F0001200F29C00016485000164A302D0000E89
:1006000046D000016495000164A13DD0F29CD8CF92
:10061000E4FFE8CFE4FFE0CFE4FFD9CFE4FFDACF97
:10062000E4FFE9CFE4FFEACFE4FFF8CFE4FFF7CF40
:10063000E4FFF6CFE4FFF5CFE4FFF4CFE4FFF3CF20
:10064000E4FF210EE96AEA6AE850E806000903E0DF
:10065000EECFE4FFF9D7FCCFE9FFFC50000808E239
:10066000FDCFE4FFFECFE4FFFFCFE4FF0600F5D7A8
:10067000E9CFE4FFE452C2C5E9FFC3C5EAFFE1CF19
:10068000EEFFE2CFEEFFEEEF0CF0000E00D0120016
:100690000501C15100D01200D9CFE6FFE1CFD9FF4B
:1006A000F29CD8CFE4FFE8CFE4FFE0CFE4FFD9CF5E
:1006B000E4FFDACFE4FFE9CFE4FFEACFE4FFF8CFCD
:1006C000E4FFF7CFE4FFF6CFE4FFF5CFE4FFF4CF8C
:1006D000E4FFF3CFE4FF210EE96AEA6AE850E80696
:1006E000000903E0EECFE4FFF9D7FCCFE9FFFC50AF
:1006F000000808E2FDCFE4FFFECFE4FFFFCFE4FFF8
:100700000600F5D7E9CFE4FFE452E1CFE9FFE2CFFD
:10071000EAFFE1CFEEFFE2CFEEFFE1CFC0F5E2CF9F
:10072000BFF5FE0EDBCFC1F5FC6A5EEF0CF0E552C3
:10073000E7CFD9FF1200D9CFE6FFE1CFD9FFC0C57F
:10074000E1FFBFC5E2FF58EC0DF0E552E7CFD9FF5E
:100750001200F29CD8CFE4FFE8CFE4FFE0CFE4FF43
:10076000D9CFE4FFDACFE4FFE9CFE4FFEACFE4FF3B
:10077000F8CFE4FFF7CFE4FFF6CFE4FFF5CFE4FFD7
:10078000F4CFE4FFF3CFE4FF210EE96AEA6AE85010
:10079000E806000903E0EECFE4FFF9D7FCCFE9FF5C
:1007A000FC50000808E2FDCFE4FFFECFE4FFFFCFDE
:1007B000E4FF0600F5D7E9CFE4FFE452C2C5E9FF44
:1007C000C3C5EAFFE1CFEEFFE2CFEEFFB9EF0CF0D9
:1007D0001200D9CFE6FFE1CFD9FFFD0EDBCF10F03D
:1007E000FE0EDBCF11F005010951126E136A125093
:1007F000105C1350115802E3030E73D0FD0EDBCFD3
:10080000E9FFFE0EDBCFEAFF030EEA02F3CFEAFFB9
:10081000E902F3CFE9FFF450EA26060EE926050EB9
:10082000EA22020EE926000EEA22EF0402E1010E9E
:1008300058D060C0E6FFFD0EDBCFE9FFFE0EDBCF38
:10084000EAFF030EEA02F3CFEAFFE902F3CFE9FF82
:10085000F450EA26060EE926050EEA22EE52E9CF0A
:1008600010F0EACF11F010C0E6FF11C0E6FFA6DCE1
:10087000E552E552E55260C0E6FFFD0EDBCFE9FF31
:10088000FE0EDBCFEAFF030EEA02F3CFEAFFE90236
:10089000F3CFE9FFF450EA26060EE926050EEA2218
:1008A000EF50E66E2DDCE552E552FD0EDBCFE9FFA1
:1008B000FE0EDBCFEAFF030EEA02F3CFEAFFE90206
:1008C000F3CFE9FFF450EA26060EE926050EEA22E8
:1008D000020EE926000EEA22010EEF6E3ADF000E4C
:1008E00000D0E552E7CFD9FF1200D9CFE6FFE1CF24
:1008F000D9FFFD0EDBCF10F0FE0EDBCF11F00501AE
:100900000951126E136A1250105C1350115802E311
:10091000030E52D0FD0EDBCFE9FFFE0EDBCFEAFF68
:10092000030EEA02F3CFEAFFE902F3CFE9FFF45046
:10093000EA26060EE926050EEA22020EE926000E38
:10094000EA22EF5002E1010E37D060C0E6FFFD0E53
:10095000DBCFE9FFFE0EDBCFEAFF030EEA02F3CFA7
:10096000EAFFE902F3CFE9FFF450EA26060EE92692
:10097000050EEA22EE52EF50E66E80EC00F0E552F2
:10098000E552FD0EDBCFE9FFFE0EDBCFEAFF030EE3
:10099000EA02F3CFEAFFE902F3CFE9FFF450EA26D7
:1009A000060EE926050EEA22020EE926000EEA22CC
:1009B000EF6ACFDE000E00D0E552E7CFD9FF12007C
:1009C000D9CFE6FFE1CFD9FF05010051F36EFE0E4E
:1009D000DBCFF4FFF350F45C02E3030ED4D0FE0E41
:1009E000DB500C0DF3CFE9FFF4CFEAFFDC0EE92674
:1009F000040EEA22EF0402E1070EC5D0FC0EDBCFA5
:100A000010F0FD0EDBCF11F0FE0EDB500C0DF3CF1E
:100A1000E9FFF4CFEAFFDC0EE926040EEA22050E18
:100A2000E926000EEA22EE50EFCFEAFFE96EEECFA4
:100A300012F0EFCF13F01050125C1150135802E275
:100A4000080EA1D0FA0EDBCF10F0FB0EDBCF11F0B9
:100A5000FE0EDB500C0DF3CFE9FFF4CFEAFFDC0E06
:100A6000E926040EEA22050EE926000EEA22EE50DF
:100A7000EFCFEAFFE96E040EE926000EEA22EECF80
:100A800012F0EFCF13F01250105C1350115822E304
:100A9000FA0EDBCF14F0FB0EDBCF15F0FE0EDB50B1
:100AA0000C0DF3CFE9FFF4CFEAFFDC0EE926040ECC
:100AB000EA22050EE926000EEA22EE50EFCFEAFF09
:100AC000E96EEECF16F0EFCF17F01450165C15500C
:100AD000175802E2080E57D0FC0EDBCF12F0FD0EC5
:100AE000DBCF13F0FE0EDB500C0DF3CFE9FFF4CF9C
:100AF000EAFFDC0EE926040EEA22050EE926000EC6
:100B0000EA22EE50EFCFEAFFE96E060EE926000E6C
:100B1000EA221250EE24106E1350EE20116EFE0EDB
:100B2000DB500C0DF3CFE9FFF4CFEAFFDC0EE92632
:100B3000040EEA22EE5210C0EEFF11C0EDFFFE0ED1
:100B4000DB500C0DF3CFE9FFF4CFEAFFDC0EE92612
:100B5000040EEA22030EE926000EEA22FA0EDBCF8B
:100B6000EEFFFB0EDBCFEDFFFE0EDB500C0DF3CFE7
:100B7000E9FFF4CFEAFFDC0EE926040EEA22010EBB
:100B8000EF6E000E00D0E552E7CFD9FF1200D9CFAB
:100B9000E6FFE1CFD9FF05010051F36EFE0EDBCF7A
:100BA000F4FFF350F45C02E3030EB3D0FE0EDB500F
:100BB0000C0DF3CFE9FFF4CFEAFFDC0EE926040EBB
:100BC000EA22EF0402E1070EA4D0FC0EDBCF10F006
:100BD000FD0EDBCF11F0FE0EDB500C0DF3CFE9FF65
:100BE000F4CFEAFFDC0EE926040EEA22050EE92620
:100BF000000EEA22EE50EFCFEAFFE96EEECF12F0E0
:100C0000EFCF13F01050125C1150135802E2080E8F
:100C100080D0FA0EDBCF10F0FB0EDBCF11F0FE0E12
:100C2000DB500C0DF3CFE9FFF4CFEAFFDC0EE92631
:100C3000040EEA22050EE926000EEA22EE50EFCF5E
:100C4000EAFFE96E040EE926000EEA22EECF12F06A
:100C5000EFCF13F01250105C1350115822E3FA0E2C
:100C6000DBCF14F0FB0EDBCF15F0FE0EDB500C0DCE
:100C7000F3CFE9FFF4CFEAFFDC0EE926040EEA2207
:100C8000050EE926000EEA22EE50EFCFEAFFE96EEC
:100C9000EECF16F0EFCF17F01450165C1550175822
:100CA00002E2080E36D0FE0EDB500C0DF3CFE9FF4A
:100CB000F4CFEAFFDC0EE926040EEA22EE52FC0E27
:100CC000DBCFEEFFFD0EDBCFEDFFFE0EDB500C0D9C
:100CD000F3CFE9FFF4CFEAFFDC0EE926040EEA22A7
:100CE000030EE926000EEA22FA0EDBCFEEFFFB0E22
:100CF000DBCFEDFFFE0EDB500C0DF3CFE9FFF4CFA1
:100D0000EAFFDC0EE926040EEA22010EEF6E000E69
:100D100000D0E552E7CFD9FF1200D9CFE6FFE1CFEF
:100D2000D9FF05010051F36EFE0EDBCFF4FFF35047
:100D3000F45C02E3030E48D0FE0EDB500C0DF3CF43
:100D4000E9FFF4CFEAFFDC0EE926040EEA22EF50B9
:100D500002E1050E39D0FE0EDB500C0DF3CFE9FF9A
:100D6000F4CFEAFFDC0EE926040EEA22EE52EECFC3
:100D700012F0EFCF13F0FE0EDB500C0DF3CFE9FFB6
:100D8000F4CFEAFFDC0EE926040EEA22050EE9267E
:100D9000000EEA22EE50EFCFEAFFE96E060EE926DA
:100DA000000EEA22EE50125C106EEE501358116ED7
:100DB000FC0EDBCFE9FFFD0EDBCFEAFF10C0EEFF3C
:100DC00011C0EDFF000E00D0E552E7CFD9FF1200B1
:100DD000D9CFE6FFE1CFD9FF05010051F36EFE0E3A
:100DE000DBCFF4FFF350F45C02E3030E1DD0FE0EE4
:100DF000DB500C0DF3CFE9FFF4CFEAFFDC0EE92660
:100E0000040EEA22EF5002E1050E0ED0FE0EDB507A
:100E10000C0DF3CFE9FFF4CFEAFFDC0EE926040E58
:100E2000EA22EF6A000E00D0E552E7CFD9FF1200A8
:100E3000D9CFE6FFE1CFD9FF05010051F36EFE0ED9
:100E4000DBCFF4FFF350F45C02E3030E1FD0FE0E81
:100E5000DB500C0DF3CFE9FFF4CFEAFFDC0EE926FF
:100E6000040EEA22050EE926000EEA22EE50EFCF2C
:100E7000EAFFE96EE9CF10F0EACF11F0FC0E10C0E6
:100E8000DBFFFD0E11C0DBFF000E00D0E552E7CF07
:100E9000D9FF1200D9CFE6FFE1CFD9FF05010051FC
:100EA000F36EFE0EDBCFF4FFF350F45C02E3030EAF
:100EB00055D1FE0EDB500C0DF3CFE9FFF4CFEAFF66
:100EC000DC0EE926040EEA22EF5002E1010E46D1C3
:100ED000FE0EDB500C0DF3CFE9FFF4CFEAFFDC0E82
:100EE000E926040EEA22050EE926000EEA22EE505B
:100EF000EFCFEAFFE96E060EE926000EEA22EE2A9F
:100F0000EF22FE0EDB500C0DF3CFE9FFF4CFEAFF2A
:100F1000DC0EE926040EEA22050EE926000EEA227E
:100F2000EE50EFCFEAFFE96E060EE926000EEA2248
:100F3000EECF10F0EFCF11F0FE0EDB500C0DF3CF23
:100F4000E9FFF4CFEAFFDC0EE926040EEA22EE52B6
:100F5000EECF12F0EFCF13F01250101802E1135041
:100F6000111801E0F9D0FE0EDB500C0DF3CFE9FFB4
:100F7000F4CFEAFFDC0EE926040EEA22030EE9268E
:100F8000000EEA22EE50ED100DE1FE0EDB500C0DCE
:100F9000F3CFE9FFF4CFEAFFDC0EE926040EEA22E4
:100FA000EF6A40D0FE0EDB500C0DF3CFE9FFF4CF1B
:100FB000EAFFDC0EE926040EEA22050EE926000E01
:100FC000EA22EE50EFCFEAFFE96E060EE926000EA8
:100FD000EA22EECF12F0EFCF13F0FE0EDB500C0D35
:100FE000F3CFE9FFF4CFEAFFDC0EE926040EEA2294
:100FF000030EE926000EEA221250EE24106E135062
:10100000EE20116EFE0EDB500C0DF3CFE9FFF4CF96
:10101000EAFFDC0EE926040EEA22EE5210C0EEFFD3
:1010200011C0EDFFFE0EDB500C0DF3CFE9FFF4CF46
:10103000EAFFDC0EE926040EEA22080EE926000E7D
:10104000EA22EE50ED1026E0FE0EDB500C0DF3CF41
:10105000E9FFF4CFEAFFDC0EE926040EEA22080ECF
:10106000E926000EEA22EF50E66EFE0EDB500C0D74
:10107000F3CFE9FFF4CFEAFFDC0EE926040EEA2203
:10108000070EE926000EEA22EF50E66E5FEC0AF04A
:10109000E552E552FE0EDB500C0DF3CFE9FFF4CF25
:1010A000EAFFDC0EE926040EEA22070EE926000E0E
:1010B000EA22EF5026E0FE0EDB500C0DF3CFE9FFE5
:1010C000F4CFEAFFDC0EE926040EEA22080EE92638
:1010D000000EEA22EE50ED1014E1FE0EDB500C0D76
:1010E000F3CFE9FFF4CFEAFFDC0EE926040EEA2293
:1010F000070EE926000EEA22EF50E66EA5EC01F09D
:10110000E552FE0EDB500C0DF3CFE9FFF4CFEAFF02
:10111000DC0EE926040EEA220A0EE926000EEA2277
:10112000EE50ED1019E0FE0EDB500C0DF3CFE9FF91
:10113000F4CFEAFFDC0EE926040EEA220A0EE926C5
:10114000000EEA22EECF10F0EFCF11F004D011C064
:10115000FAFF1050F96EFBDF030E00D0E552E7CF27
:10116000D9FF1200D9CFE6FFE1CFD9FF0501005129
:10117000F36EFE0EDBCFF4FFF350F45C02E3030EDC
:1011800036D0FE0EDB500C0DF3CFE9FFF4CFEAFFB3
:10119000DC0EE926040EEA22EF5002E1010E27D010
:1011A000FE0EDB500C0DF3CFE9FFF4CFEAFFDC0EAF
:1011B000E926040EEA22050EE926000EEA22EE5088
:1011C000EFCFEAFFE96E060EE926000EEA22EECF27
:1011D00010F0EFCF11F0FC0EDBCFE9FFFD0EDBCFFF
:1011E000EAFF10C0EEFF11C0EDFF000E00D0E55287
:1011F000E7CFD9FF1200D9CFE6FFE1CFD9FF030E29
:10120000E126010ED6CFDBFF020ED7CFDBFFD95090
:10121000010FE96EDACFEAFF0501C951EE26CA5186
:10122000ED22020EDB50D76E010EDB50D66EF2942B
:101230000401D82B000ED9230501022B032304231C
:101240000523DF6A05010051DF5C01E32BD1DF508C
:101250000C0DF3CFE9FFF4CFEAFFDC0EE926040E14
:10126000EA22EF5001E11CD1DF500C0DF3CFE9FF72
:10127000F4CFEAFFDC0EE926040EEA22050EE92689
:10128000000EEA22EE50EFCFEAFFE96E060EE926E5
:10129000000EEA22EECF10F0EFCF11F0DF500C0D70
:1012A000F3CFE9FFF4CFEAFFDC0EE926040EEA22D1
:1012B000EE52EECF12F0EFCF13F01250101802E101
:1012C0001350111801E0ECD0DF500C0DF3CFE9FF03
:1012D000F4CFEAFFDC0EE926040EEA22030EE9262B
:1012E000000EEA22EE50ED100CE1DF500C0DF3CFB2
:1012F000E9FFF4CFEAFFDC0EE926040EEA22EF6AEA
:101300003DD0DF500C0DF3CFE9FFF4CFEAFFDC0E48
:10131000E926040EEA22050EE926000EEA22EE5026
:10132000EFCFEAFFE96E060EE926000EEA22EECFC5
:1013300012F0EFCF13F0DF500C0DF3CFE9FFF4CF35
:10134000EAFFDC0EE926040EEA22030EE926000E6F
:10135000EA221250EE24106E1350EE20116EDF5070
:101360000C0DF3CFE9FFF4CFEAFFDC0EE926040E03
:10137000EA22EE5210C0EEFF11C0EDFFDF500C0D5F
:10138000F3CFE9FFF4CFEAFFDC0EE926040EEA22F0
:10139000080EE926000EEA22EE50ED1024E0DF50A0
:1013A0000C0DF3CFE9FFF4CFEAFFDC0EE926040EC3
:1013B000EA22080EE926000EEA22EF50E66EDF5020
:1013C0000C0DF3CFE9FFF4CFEAFFDC0EE926040EA3
:1013D000EA22070EE926000EEA22EF50E66E5FECE5
:1013E0000AF0E552E552DF500C0DF3CFE9FFF4CFE0
:1013F000EAFFDC0EE926040EEA22070EE926000EBB
:10140000EA22EF5024E0DF500C0DF3CFE9FFF4CFD8
:10141000EAFFDC0EE926040EEA22080EE926000E99
:10142000EA22EE50ED1013E1DF500C0DF3CFE9FF8F
:10143000F4CFEAFFDC0EE926040EEA22070EE926C5
:10144000000EEA22EF50E66EA5EC01F0E552DF5007
:101450000C0DF3CFE9FFF4CFEAFFDC0EE926040E12
:10146000EA220A0EE926000EEA22EE50ED1018E0FC
:10147000DF500C0DF3CFE9FFF4CFEAFFDC0EE926D5
:10148000040EEA220A0EE926000EEA22EECF10F040
:10149000EFCF11F004D011C0FAFF1050F96EFBDF4E
:1014A000DF2AD0D600016485030EE15C03E200D0A0
:1014B000E16AE552E16EE552E7CFD9FF1200D9CFDC
:1014C000E6FFE1CFD9FF030EE126D950010FE96E07
:1014D000DACFEAFFA00EEE6E000EED6EDF6A100EA0
:1014E000DF5C71E2010EDBCFE9FF020EDBCFEAFF2A
:1014F000EF500F0B106EFE0EDB50105C5DE1010E25
:10150000DBCFE9FF020EDBCFEAFFEF50200B02E159
:10151000070E60D0DF50116A800F106E000E11228E
:10152000010E10C0DBFF020E11C0DBFF010EDBCF8E
:10153000E9FF020EDBCFEAFFFD0EDB50EF12DF50BA
:10154000116A900F106E000E1122010E10C0DBFF09
:10155000020E11C0DBFFFD0EDBCFE6FF010EDBCF7D
:10156000E9FF020EDBCFEAFFEF50E552E71403E19B
:10157000000E30D021D0DF50116AA00F106E000E87
:101580001122010E10C0DBFF020E11C0DBFF0F0E97
:10159000106E010EDBCFE9FF020EDBCFEAFF105029
:1015A000EF16010EDBCFE9FF020EDBCFEAFFEF8A79
:1015B000F9EC02F0000E0ED0DF2A010EDB2A020E3B
:1015C00001E3DB2A8CD7100EDF5C02E1030E02D0B0
:1015D000000E00D0106E030EE15C02E2E16AE552FB
:1015E000E16E1050E552E7CFD9FF1200D9CFE6FFE8
:1015F000E1CFD9FF030EE126D950010FE96EDACF12
:10160000EAFFA00EEE6E000EED6EDF6A100EDF5CDC
:1016100042E2010EDBCFE9FF020EDBCFEAFFEF5023
:101620000F0B0001605D30E1DF50116A800F106E1A
:10163000000E1122010E10C0DBFF020E11C0DBFFF5
:10164000FE0EDB1C106E010EDBCFE9FF020EDBCFBE
:10165000EAFF1050EF16DF50116A900F106E000E67
:101660001122010E10C0DBFF020E11C0DBFFFE0EC7
:10167000DB1C106E010EDBCFE9FF020EDBCFEAFFB1
:101680001050EF16000E09D0DF2A010EDB2A020EE1
:1016900001E3DB2ABBD7000E00D0106E030EE15C25
:1016A00002E2E16AE552E16E1050E552E7CFD9FF60
:1016B0001200D9CFE6FFE1CFD9FF030EE126D950C2
:1016C000010FE96EDACFEAFFA00EEE6E000EED6EAE
:1016D000DF6A100EDF5C3EE2010EDBCFE9FF020E97
:1016E000DBCFEAFFEF500F0B106EFE0EDB50105CED
:1016F0002AE1010EDBCFE9FF020EDBCFEAFFEF505C
:10170000E00B02E1070E2DD0DF50116A800F106E42
:10171000000E1122010E10C0DBFF020E11C0DBFF14
:10172000010EDBCFE9FF020EDBCFEAFFEF50E66EE2
:10173000FC0EDBCFE9FFFD0EDBCFEAFFE552E75001
:10174000EF6E000E0ED0DF2A010EDB2A020E01E33F
:10175000DB2ABFD7100EDF5C02E1030E02D0000EC1
:1017600000D0106E030EE15C02E2E16AE552E16E28
:101770001050E552E7CFD9FF1200D9CFE6FFE1CFF5
:10178000D9FF030EE126D950010FE96EDACFEAFF47
:10179000A00EEE6E000EED6EDF6A100EDF5C5CE2F6
:1017A000010EDBCFE9FF020EDBCFEAFFEF500F0B9C
:1017B0000001605D4AE1F29CDF50116A900F106EEB
:1017C000000E1122010E10C0DBFF020E11C0DBFF64
:1017D000010EDBCFE9FF020EDBCFEAFFFE0EDBCF0F
:1017E000EFFFDF50116A800F106E000E1122010E04
:1017F00010C0DBFF020E11C0DBFFFE0EDBCFE6FFE9
:10180000010EDBCFE9FF020EDBCFEAFFEF50E5521E
:10181000E71418E1DF50116AA00F106E000E1122BC
:10182000010E10C0DBFF020E11C0DBFF800E106E38
:10183000010EDBCFE9FF020EDBCFEAFF1050EF26EF
:10184000F9EC02F0F28C000E0ED0DF2A010EDB2A3A
:10185000020E01E3DB2AA1D7100EDF5C02E1030ECA
:1018600002D0000E00D0106E030EE15C02E2E16ACD
:10187000E552E16E1050E552E7CFD9FF1200F28E2B
:10188000F28C1200F29EF29C1200F28EF28C120088
:10189000F29EF29C1200F28C1200F29C120064C0C4
:1018A000CBF5000164831200000164A504D0CBC510
:1018B00064F0F9EC02F0CBC564F01200EA6AE96A60
:1018C000E16AE26AF86AFA6AFF0EEE6AE962FDD737
:1018D000EE6AEA6AFC6A1F0EFC2AFF6AFE6AFD6A6B
:1018E000FC62FAD7FC6AFC2A880ED56E9D6AA06A53
:1018F000D06A9F6AA26A800EF16ED08EA00EF26E40
:10190000F2840001010EFC6E616B636F606BEA6A2A
:10191000B00EE96EF86A0BC5F7FF0AC5F6FF0900BD
:10192000F550D8B429D0F5CFEFFF0900F550E16E9E
:101930000900F550E26EE550AD0EE56EDE0EE76E85
:10194000E650E65009000900E9980900F550EF2635
:101950000900F550EF260900F550E126E86AE22279
:101960000900E550AD0EE56EDE0EE76EE92AE98866
:10197000D6D70001636B632BEA6AB00EE96E635140
:10198000D8B42CD0636B0F0EEF14616FD8B4F4D7BA
:10199000EFCF62F00F0EEC14616301D0F4D76165F4
:1019A00001D0F1D7ED50EE6E62C0EFFFE998EDCFB8
:1019B00062F0EF5062C0EEFFEF6EE99AEDCF62F099
:1019C000EF5062C0EEFFEF6EE988EDCF62F0EF50AE
:1019D00062C0EEFFEF6EE98A632BD5D700016491F8
:1019E0006051D8B430D0EA6A9F0EE96EE92A1F0E22
:1019F000EF146063FBD7EF9C606BE9880F0EEF1468
:101A0000616F0F0EEC1461631ED000D0EDCF62F059
:101A1000EF5062C0EEFFEF6EE998EDCF62F0EF504D
:101A200062C0EEFFEF6EE99AEDCF62F0EF5062C058
:101A3000EEFFEF6EE988EDCF62F0EF5062C0EEFF8F
:101A4000EF6EE98ADED7EA6A9F0EE96EE92AEFAA0D
:101A500074D0EFBE72D00001EF8C1F0EEF14606FD8
:101A600000016481F86A0BC5F7FF0AC5F6FF060E90
:101A7000F626E86AF722000160510900F56201D0FC
:101A800005D0080EF626E86AF722F6D7060EF65EAF
:101A9000E86AF75A0900F550E96E0900F550EA6E58
:101AA0000900F550666F0900F550676FA8EF0DF05B
:101AB0000001E5CF61F0E5CF61F0FC6A0500E5507B
:101AC000FF6EE550FE6EE550FD6EFC506163F6D78B
:101AD000EA6A1F0EE96EE5CFEDFFE950D8A8FBD703
:101AE000E5CFF3FFE5CFF4FFE5CFF5FFE5CFF6FF58
:101AF000E5CFF7FFE5CFF8FFE5CFEAFFE5CFE9FF58
:101B0000E5CFDAFFE5CFD9FFE5CFE0FFE5CFE8FF8E
:101B1000E5CFD8FFF28C1000E9CFE1FFE9CFD9FF84
:101B2000EACFE2FFEACFDAFFFC6AFC2A6651FD6EDB
:101B30006751FE6EFF6AF28C1000AF0EE95C86E121
:101B4000BFC5E2FFC0C5E1FF0001F28CFC6AFCD713
:101B5000E9CFC2F5EACFC3F5EDCFE8FFAD0EEDCF8B
:101B6000E1FFE162F5EF0DF0DE0EEDCFE1FFE162A6
:101B7000F5EF0DF0F86A0BC5F7FF0AC5F6FF060E84
:101B8000F626E86AF722000160510900F56201D0EB
:101B900005D0080EF626E86AF722F6D7C2C5E9FF97
:101BA000C3C5EAFF0900F550E926E86AEA22090000
:101BB000EDCFE8FFAD0EEDCFE1FFE16207EF0EF0F4
:101BC000DE0EEDCFE1FFE16207EF0EF0C2C5E9FFE7
:101BD000C3C5EAFFEECFE1FFEECFE2FFE150D8A4AC
:101BE00067D7E250D8B498D763D7EA6A9F0EE96EF8
:101BF000E92A1F0EEF146063FBD7EF9AEF9CEF9E6C
:101C000065C0E8FFF00B6025E8CF65F0E7D6EA6A2B
:101C10009F0EE96EE92A1F0EEF146063FBD7EF9A5F
:101C2000EF9CEF9E65C0E8FFE838F00B6025E838D0
:101C3000E8CF65F0D3D6F86A0BC5F7FF0AC5F6FF03
:101C4000060EF626E86AF722000160510900F562E7
:101C500001D005D0080EF626E86AF722F6D7060E60
:101C6000F65EE86AF75A0900F550E96E0900F5508A
:0C1C7000EA6EE86AEE6EEF6EEEEF0CF02C
:1020000005019251030A1CE0010A14E0030A0AE0E8
:10201000010A01E012000F0E0501975D14E02FDAAE
:1020200017E011D0030E0501985D0DE0982923DA21
:102030000AE10ED00501975106E027DA04E108D045
:102040000501985102E1F36A07D0980514DA03E11B
:10205000010EF36E01D0F36AF46A12000501925189
:10206000030A1BE0010A12E0030A09E0010A01E089
:1020700012000501975115E008DA18E012D00501A9
:1020800098510FE09805F7D90CE110D00F0E05011B
:10209000975D07E0F4D905E109D0030E0501985DCD
:1020A00002E1F36A07D09829E6D903E1010EF36E45
:1020B00001D0F36AF46A120005019251030A1DE08F
:1020C000010A13E0030A0AE0010A01E01200050117
:1020D000985116E09805CFD917E012D00F0E0501E0
:1020E000975D0EE0CCD90CE10FD0030E0501985D91
:1020F00007E09829C0D904E107D00501975102E112
:10210000F36A06D0C2D903E1010EF36E01D0F36A7F
:10211000F46A12008E860501925107E1A7D90501E4
:10212000320EBC5F000EBD5B1BD092050CE19ED948
:10213000320E050193250501BA6F000E05019421A9
:102140000501BB6F1FD0020E925D0FE1320E05013B
:1021500095250501BC6F000E050196210501BD6F97
:1021600093C5BAF594C5BBF50DD0030E925D0AE197
:102170007DD993C5BAF594C5BBF50501320EBA5F9A
:10218000000EBB5B050195510501BC190FE105016E
:1021900096510501BD190AE1050193510501BA19CE
:1021A00004E1050194510501BB1935E0ACBAFED735
:1021B000030EE66E8B0EE66E050E51D92ED9898878
:1021C000020E8F5DFBE3450E0501B85DF7E1898ADC
:1021D0000501925106E13DD90501955F1150965BCD
:1021E000D1D7920506E135D90501932711509423E3
:1021F000C9D7020E925D06E12CD905019527115031
:102200009623C0D7030E925DBDE123D90501935FEC
:102210001150945BB7D70501925103E1050198076E
:102220001200920503E10501972B1200020E925D48
:1022300003E10501982B1200030E925D02E10501F6
:10224000970712008E82050192510501BE5D42E1A1
:10225000ACBAFED7030EE66E830EE66E050EFFD80F
:10226000DCD8E850FDE0450E0501B85DF9E1898450
:10227000B951106E116A05011050905D11509159BD
:1022800004E2680E9027010E9123E3D80501905FC8
:102290001150915B9051911103E10501BE6BD3D7B1
:1022A0005A0E901905E1915103E10501030E10D07A
:1022B000B40E901905E1915103E10501020E08D019
:1022C0000E0E9019C0E1010E9119BDE10501010E3C
:1022D000BE6FB9D7BEC592F512008E8C0501925122
:1022E0000501BE5D47E1ACBAFED7030EE66E870E70
:1022F000E66E050EB4D891D8E850FDE0450E050114
:10230000B85DF9E1898EB951106E116A105005015E
:10231000902711509123680E0B6E010E0C6E90C524
:1023200006F091C507F047EC16F002C090F503C027
:1023300091F505010250031003E10501BE6BCED7F4
:102340005A0E901905E1915103E10501030E10D0D9
:10235000B40E901905E1915103E10501020E08D078
:102360000E0E9019BBE1010E9119B8E10501010EA5
:10237000BE6FB4D7BEC592F512009D8AF286F29068
:10238000100E936ED08EF19092C5BEF5280EE66EBB
:10239000E66AE66EE66A020EE66EE0EC04F0106EA7
:1023A000050EE15E105089800501A6510AE128DE84
:1023B00049D802E047DF0DD07FDE44D80AE18DDF47
:1023C0000BD04CDE3FD802E088DF03D075DE3AD870
:1023D00002E0A0DE01D036DF8E8E200EE66E010E0A
:1023E000E66E5FEC0AF0E552E5521DEC02F01DEFDF
:1023F00002F0100DF3CF10F0F4CF11F00C0E1026F8
:10240000050E1122050112000F011024E96E000EC5
:102410001120EA6EEF5020081200800EE66EBDEC2F
:102420000BF0E552800EE66EF6EC0AF0E552B80EBF
:10243000E66E050EE66E9DEC14F0E552E5520501E0
:102440008F6F1200F3CF10F0F4CF11F0F350F410AF
:1024500012000501B951106E116A10501200E66E9B
:1024600068EC14F0E552E552E552120095C5BCF552
:1024700096C5BDF51200BDDF975104EF12F00501BE
:102480009851B7DF972904EF12F005019851B1DF99
:06249000970504EF12F0B5
:0A249600D9CFE6FFE1CFD9FFFE0E1B
:1024A000DB50300FE552E7CFD9FF12009D8AF2864C
:1024B000F290100E936ED08EF190ACBAFED7030E50
:1024C000E66EC50EE66E050EDCD989820501240E86
:1024D0007C6F4D0E7D6F3A0E816F826B280EE66E1B
:1024E000E66AE66EE66A010EE66EE0EC04F0106E57
:1024F000050EE15E1050740EE66E050EE66E9DEC64
:1025000014F0E552E5520501C46F8984E85001E1F9
:1025100060D1440E0501745D01E05BD1898605013F
:102520009251030A01E1F8D0010A01E1A5D0030AA2
:1025300054E0010A01E041D10501985111E09805EC
:10254000B3D902E105019B070501750502E1FF0E04
:1025500001D0200E9DD975C580F5ACBAFED751D9F2
:102560000F0E0501975D10E0ABD902E105019B0755
:102570000501760502E1FF0E01D0200E99D976C53E
:1025800080F5ACBAFED73DD9030E0501985D11E088
:1025900098298AD902E105019B070501770502E127
:1025A000FF0E01D0200E7AD977C580F5ACBAFED7E0
:1025B00028D90501975101E101D186D902E1050130
:1025C0009B070501780502E1FF0E01D0200E74D9AA
:1025D00078C580F5ACBAFED7EED00F0E0501975D39
:1025E00010E06ED902E105019B070501750502E1C6
:1025F000FF0E01D0200E5CD975C580F5ACBAFED7B0
:1026000000D9030E0501985D11E098294DD902E12A
:1026100005019B070501760502E1FF0E01D0200EA2
:102620003DD976C580F5ACBAFED7EBD805019751F8
:102630000EE04AD902E105019B070501770502E199
:10264000FF0E01D0200E38D977C580F5DAD8050104
:10265000985101E1B3D0980527D902E105019B0704
:102660000501780502E1FF0E01D0200E11D978C5D1
:1026700080F5ACBAFED79FD0030E0501985D11E03E
:10268000982912D902E105019B070501750502E1B0
:10269000FF0E01D0200E02D975C580F5ACBAFED769
:1026A000B0D80501975110E00FD902E105019B0751
:1026B0000501760502E1FF0E01D0200EFDD876C59A
:1026C00080F5ACBAFED79DD80501985111E0980568
:1026D000EBD802E105019B070501770502E1FF0E3A
:1026E00001D0200ED5D877C580F5ACBAFED789D8F1
:1026F0000F0E0501975D62E0E3D802E105019B073B
:102700000501780502E1FF0E01D0200ED1D878C571
:1027100080F5ACBAFED74FD00501975110E0D4D860
:1027200002E105019B070501750502E1FF0E01D0DD
:10273000200EC2D875C580F5ACBAFED762D80501A7
:10274000985111E09805B0D802E105019B070501F9
:10275000760502E1FF0E01D0200E9AD876C580F5ED
:10276000ACBAFED74ED80F0E0501975D10E0A8D881
:1027700002E105019B070501770502E1FF0E01D08B
:10278000200E96D877C580F5ACBAFED73AD8030E9E
:102790000501985D13E0982987D802E105019B07A0
:1027A0000501780502E1FF0E01D0200E77D878C52B
:1027B00080F5ACBAFED725D801D08E88400EE66EE3
:1027C000010EE66E5FEC0AF0E552E5521DEC02F0F8
:1027D0000BD0800EE66EBDEC0BF0E552800EE66E7F
:1027E000F6EC0AF0E55287D61DEF02F0100DF3CF9C
:1027F00010F0F4CF11F00C0E1026050E1122050179
:102800001200060EE66E7C0EE66E050E41EF14F029
:102810001024E96E000E1120EA6E1200E552E75016
:10282000EF6E97C57FF505011200E552E750EF6E98
:10283000972905017F6F98C57EF51200E552E75094
:10284000EF6E970505017F6F98C57EF51200CEDF0C
:10285000975108EF14F005019851C8DF972908EF48
:1028600014F005019851C2DF970508EF14F0D6DF88
:10287000980505017E6F1200D1DF982905017E6F52
:102880001200E66E68EC14F0E552E552E5521200D3
:10289000E66E05019805DBDF37EF14F0E66E050103
:1028A0009829D5DF3CEF14F0D2DFEF505808120022
:1028B000E66ED1DF15EF14F0E66ED3DF1EEF14F0F5
:1028C000CADFEF5058081200CCDFEF505808120052
:1028D000C3D80501010EB76FB56BFC0EDB50B55DBB
:1028E00014E2B551A5D8EF50E66EB251EA6A000F76
:1028F000E96E040EEA22E552E750EF6EB2298AD85B
:1029000003C0B2F50501B52BE8D7B76BAC8AA9D0E7
:102910000501B251B15D0FE0B7510DE1B151EA6A65
:10292000000FE96E040EEA22EF50AD6EB12972D8A5
:1029300003C0B1F51200AC9A12008ED80501B66B37
:102940000501B3516FD8EF50240805E0B451B35DD1
:1029500002E094D8F5D7B451B35D18E08FD80501E3
:10296000035060D8EF503A080EE0B451B35D0BE06D
:10297000B35158D8EF50E66EB6515AD8E552E750E9
:10298000EF6EB62BEBD7B451B35D02E1000E03D06E
:1029900075D80501B65165D05FD8E652AE50DF6EEE
:1029A0000501AF5108E1240EDF5C05E15ED80501A9
:1029B000030EAF6F11D0030EAF5D05E13A0EDF5C81
:1029C00002E053D809D0030EAF5D06E13A0EDF5C9A
:1029D00003E14BD80501AF6BE55243D005019905E2
:1029E0000AE1800E50D80C0EE66E050E2DD81C0E96
:1029F000E66E050E09D0800E46D82C0EE66E050E4A
:102A000023D83C0EE66E050EE66E93EC15F0E5520B
:102A1000E5521200106E640E116E0C6E10C007F0BD
:102A20008DEF16F0EA6A640FE96E040EEA221200D6
:102A3000E76EFD0EDBCFE9FFFE0EDBCFEAFFE750CE
:102A4000E926000EEA221200E66E93EC15F0E5523C
:102A5000E552C00E43EF15F0D9CFE6FFE1CFD9FF25
:102A60001200E552E7CFD9FF1200B451DBDFDFCF10
:102A7000EFFFB429CFDF03C0B4F51200B329CADFDA
:102A800003C0B3F51200E66E53EC15F0E5521200E8
:102A9000F2968A8AF286010E7DD8F2968A9AF2869A
:102AA000010ECAEF15F085D88A945DD082D88A8449
:102AB0005AD08A80926A946A976A986A996A9A6ADE
:102AC000806A826A846A856A866A876A886A8A9A5C
:102AD0008A948C988C9A8C9C8C9E939A93949598BB
:102AE000959A959C959E8A9A8A940F0E53D80F0EAC
:102AF00051D855D8060E4ED852D8030EE66E6DEC5E
:102B000016F0E5524CD8020E45D80F0E8316838A74
:102B1000BFDF020E3FD82C0E48D80C0E46D8010E4F
:102B200044D88A82120045D8FD0EDBCFE9FFFE0EA5
:102B3000DBCFEAFFEF500EE0FD0EDBCFE9FFDB2A33
:102B4000FE0EDBCFEAFF01E3DB2AEF50E66EAEDFDD
:102B5000E552EAD7E552E7CFD9FF1200010E25D89A
:102B6000020ECAEF15F00F0E8314836EFE0EDB50BB
:102B7000F00B8310836E8CDF0F0E8314836EFE0EBA
:102B8000DB38F00BF00B8310836E82DFE552E7CF6A
:102B9000D9FF1200E66E68EC19F0E55212000F0E34
:102BA0008316300E831248EF15F0E66E7CDFE55297
:0C2BB0001200D9CFE6FFE1CFD9FF1200E0
:042BBC009D8AF28676
:102BC000F290100E936ED08EF190280EE66EE66AAB
:102BD000E66EE66AE66AE0EC04F0106E050EE15E71
:102BE00010504F0EE66E050EE66E9DEC14F0E552A9
:102BF000E5520501736FE85008E0470E4F5D05E1AF
:102C00004F0E505D02E1898002D032D8EAD7020E21
:102C1000E66EA5EC01F0E552400E2FD8400E32D8FA
:102C2000030EE66EA5EC01F0E552200E26D8200E2C
:102C300029D805019B51EBE10501010EA66F0F0E8E
:102C40000501975DE4E105019851E1E1ACBAFED7D9
:102C5000050EE66EA80EE66E050EE66E68EC14F044
:102C6000E552E552E5528E8E1DEC02F001D8CFD729
:102C7000800E03D8800E42EF16F0E66EBDEC0BF02E
:0E2C8000E5521200E66EF6EC0AF0E552120084
:022C8E00036AD7
:102C9000026A100EE76ED890063607360236033603
:102CA0000B50025C0C50035805E30B50025E0C50B5
:0A2CB000035A062AE72EF0D712009F
:062CBA0017EE00F027EE0A
:102CC00000F0F86A0F9C7DEC16F0AEEC19F003EC06
:0A2CD00000F0A8EC18F0FBD712008A
:062CDA00FF0EE350196E2D
:102CE000480E01D04C0EE76EE72EFED7E76AE72EBE
:0A2CF000FED7192EF7D700001200DE
:062CFA00600EF36E00EE17
:102D000000F00F0E01D81200EA6002D0EE6AFCD784
:0A2D1000F350E9601200EE6AFCD7F0
:062D1A00036A080EE76EDB
:102D2000D890073603360C50035C02E3036E072A83
:062D3000E72EF7D71200A8
:0A2D360024523A00244C3A002446CF
:032D40003A000056
:092D4300000024454E443A000052
:042D4C00C8000A00B1
:102D5000640000000000FFFF010000000000000010
:102D60000000000000D2040180000000000000000C
:102D700000D20402800000000000000000D2040322
:102D8000800000000301000000000A000001520062
:0C2D9000B4000219001900000001003E10
:042D9C000000000033
:052DA00000000000002E
:10300000D8CFE4FFE0CFE4FFE46EDACFE4FFE2CF15
:10301000DAFFE9CFE4FFEACFE4FFF6CFE4FFF7CF32
:10302000E4FFF5CFE4FFF3CFE4FFF4CFE4FFFACF02
:10303000E4FF00EE00F0100EE80403E3EECFE4FF3F
:10304000FBD700EE10F0080EE80403E3EECFE4FF38
:10305000FBD7E652D9CFE6FFE1CFD9FFE6524FECDE
:103060000CF0F2A402D0FBEC08F09EA802D088EC91
:1030700014F09EAA03D0CCEC14F09E9AABA202D01E
:10308000AB98AB88F250080B29E0F250010B26E018
:103090008150DF6EF290DFB821D0050199050FE174
:1030A000800E51D82C0EE66E050E47D8C00E4BD8B8
:1030B0003C0EE66E050E41D80501996B0FD0800ECF
:1030C00042D80C0EE66E050E38D8C00E3CD81C0E49
:1030D000E66E050E32D80501010E996F54EC0CF026
:1030E000E552E552E7CFD9FFE55200EE17F0080EA2
:1030F000E80403E3E5CFEDFFFBD700EE0FF0100E81
:10310000E80403E3E5CFEDFFFBD7E5CFFAFFE5CF1A
:10311000F4FFE5CFF3FFE5CFF5FFE5CFF7FFE5CF10
:10312000F6FFE5CFEAFFE5CFE9FFE5CFDAFFE550AF
:10313000E5CFE0FFE5CFD8FF1000E66E93EC15F089
:10314000E552E5521200E66E53EC15F0E55212001E
:10315000FC6A05014E6B1CD806D84EC5E6FF4CEC48
:1031600003F0E552FAD7800EA3D80C0EE66E050EDA
:10317000E66E93EC15F0E552E552C00E99D81C0EA0
:10318000E66E050EE66E93EC15F0E552E552120080
:10319000F2908A80926A936A946A976A986A996AA6
:1031A0009A6A806A826A846A856A866A876A886A95
:1031B0008A9A8A948C988C9A8C9C8C9E939A9394DD
:1031C0009598959A959C959E8A9A8A940F0E7BD88D
:1031D0000F0EE66E68EC19F064D8060EE66E68EC29
:1031E00019F05FD8030EE66E6DEC16F05AD8020E99
:1031F0006AD80F0E8316838A48EC15F0020E63D846
:103200002C0E56D80C0E54D8010E52D88A82EA6A77
:10321000E96A0501D80EC96FD90ECA6F080ED56EBE
:10322000CAC5D7FFC9C5D6FF9388948E949C150E46
:10323000AF6E040EAC6E900EAB6EF26A9D889D8AE6
:103240009E6AF28CF28EF286F290D08EF190050199
:103250004C6B040E4C5D1CE24D6B100E4D5D16E286
:103260004C51100DF3CF10F0F4CF11F00C0E1026CE
:10327000050E11224D510F011024E96E000E112090
:10328000EA6E580EEF6E05014D2BE7D74C2BE1D7B8
:10329000200E0C6F1B6F120012000FD00ED0120008
:1032A0001200E5520F0E8316300E831248EF15F010
:1032B000E66E53EC15F0E5521200D9CFE6FFE55269
:1032C000E7CFD9FF1200E66E68EC19F0E552120064
:1032D000FF0EE350196EEF0E01D0F30EE76EE72EEE
:1032E0006FEF19F00C0E186EE76AE72E75EF19F004
:0E32F000182E74EF19F0192E6DEF19F0120060
:10330000DACFE4FFE652F2B2F292E552E5CFDAFF0D
:023310001100AA
:0E33120006009C2D0000AF0500000900000021
:10332000902D0000900500000C0000004C2D0000C6
:10333000C804000044000000432D0000A605000062
:1033400009000000FA330000C40500000500000079
:0C335000362D0000830500000D00000079
:04335C00120EF66EE9
:10336000330EF76E000EF86E05010900F550A16FDF
:103370000900F550A26F03E1A16701D03DD009001B
:10338000F5509C6F0900F5509D6F0900F5509E6F38
:1033900009000900F550E96E0900F550EA6E0900D0
:1033A00009000900F5509F6F0900F550A06F090052
:1033B0000900F6CFA3F5F7CFA4F5F8CFA5F59CC586
:1033C000F6FF9DC5F7FF9EC5F8FF05019F5302E17B
:1033D000A05307E00900F550EE6E9F07F8E2A00742
:1033E000F9D7A3C5F6FFA4C5F7FFA5C5F8FF0501EA
:0A33F000A107000EA25BBFD7120078
:0533FA000024533A001D
:063400005DEF16F0120062
:020000040030CA
:0100010006F8
:0100020019E4
:010003001EDE
:010005008377
:010006008178
:00000001FF
