:020000040000FA
:1000000010EF04F0E86A806A896A926A100E926EB4
:10001000816A8A6A936A826A8B6A946A836A8C6A42
:10002000956A846A8D6A966A306A180E966E12EF27
:1000300004F0E8CF27F00A0E236EC80E246EFA0EE5
:10004000256E00000000000000000000000000001D
:1000500000000000000000000000000000000000A0
:1000600000000000252EEDD7242EE9D7232EE5D75A
:1000700027C0E8FF1200E8CF27F0050E206EC80E5B
:10008000216EFA0E226E30B04FEF01F0000000003A
:100090000000000000000000000000000000000060
:1000A000000000000000000000000000000080B818
:1000B0003080222EE8D7212EE4D7202EE0D727C08B
:1000C000E8FF120019EC00F019EC00F012000F0E1E
:1000D000896E8A6E8B6E8C6E14EF04F0000E896E42
:1000E0008A6E8B6E8C6E18EF04F0010E896E000E16
:1000F000286E3BEC00F0030E896E010E286E3BEC7F
:1001000000F0070E896E020E286E3BEC00F00F0E19
:10011000896E030E286E3BEC00F08FEF00F0010EAD
:100120008A6E040E286E3BEC00F0030E8A6E050EFC
:10013000286E3BEC00F0070E8A6E060E286E3BEC34
:1001400000F00F0E8A6E070E286E3BEC00F0A9EF50
:1001500000F0010E8B6E080E286E3BEC00F0030ED3
:100160008B6E090E286E3BEC00F0070E8B6E0A0EAC
:10017000286E3BEC00F00F0E8B6E0B0E286E3BECE6
:1001800000F0C3EF00F0010E8C6E0C0E286E3BECFD
:1001900000F0030E8C6E0D0E286E3BEC00F0070E87
:1001A0008C6E0E0E286E3BEC00F00F0E8C6E0F0E58
:1001B000286E3BEC00F045EF01F0070E8C6E100E40
:1001C000286E3BEC00F0030E8C6E110E286E3BEC9B
:1001D00000F0010E8C6E120E286E3BEC00F0000E4B
:1001E0008C6E130E286E3BEC00F0F7EF00F0070E5C
:1001F0008B6E140E286E3BEC00F0030E8B6E150E0A
:10020000286E3BEC00F0010E8B6E160E286E3BEC58
:1002100000F0000E8B6E170E286E3BEC00F011EF15
:1002200001F0070E8A6E180E286E3BEC00F0030EEC
:100230008A6E190E286E3BEC00F0010E8A6E1A0EC3
:10024000286E3BEC00F0000E8A6E1B0E286E3BEC15
:1002500000F02BEF01F0070E896E1C0E286E3BECB0
:1002600000F0030E896E1D0E286E3BEC00F0010EAF
:10027000896E1E0E286E3BEC00F0000E896E1F0E7C
:10028000286E3BEC00F045EF01F080B84AEF01F03A
:1002900045EF01F080A857EF01F04AEF01F080A888
:1002A00054EF01F046EF00F0309057EF01F0000EF0
:1002B000296E28502960DBEF01F0292A2960E3EF3D
:1002C00001F0292A2960EBEF01F0292A2960F3EFD8
:1002D00001F0292A2960FBEF01F0292A296003EFA8
:1002E00002F0292A29600BEF02F0292A296013EF76
:1002F00002F0292A29601BEF02F0292A296023EF46
:1003000002F0292A29602BEF02F0292A296033EF15
:1003100002F0292A29603BEF02F0292A296043EFE5
:1003200002F0292A29604BEF02F0292A296053EFB5
:1003300002F0292A296058EF02F0292A296060EF8B
:1003400002F0292A296068EF02F0292A296070EF5B
:1003500002F0292A296078EF02F0292A296080EF2B
:1003600002F0292A296088EF02F0292A296090EFFB
:1003700002F0292A296098EF02F0292A2960A0EFCB
:1003800002F0292A2960A8EF02F0292A2960B0EF9B
:1003900002F0292A2960B8EF02F0292A2960C0EF6B
:1003A00002F0292A2960C8EF02F0292A2960D0EF3B
:1003B00002F0D5EF02F084B6D8EF02F084B8DDEF9A
:1003C00002F0DBEF01F084B6E2EF02F084B8E7EF71
:1003D00002F0E3EF01F084B6ECEF02F084B8F1EF45
:1003E00002F0EBEF01F084B6F6EF02F084B8FBEF19
:1003F00002F0F3EF01F084B600EF03F084B805EFEC
:1004000003F0FBEF01F084B60AEF03F084B80FEFBE
:1004100003F003EF02F084B616EF03F084B81BEF8D
:1004200003F00BEF02F084B620EF03F084B825EF61
:1004300003F013EF02F084B62AEF03F084B82FEF35
:1004400003F01BEF02F084B634EF03F084B839EF09
:1004500003F023EF02F084B63EEF03F084B843EFDD
:1004600003F02BEF02F084B648EF03F084B84DEFB1
:1004700003F033EF02F084B652EF03F084B857EF85
:1004800003F03BEF02F084B65CEF03F084B861EF59
:1004900003F043EF02F084B666EF03F084B86BEF2D
:1004A00003F04BEF02F084B870EF03F053EF02F06B
:1004B00084B675EF03F084B87AEF03F058EF02F0DA
:1004C00084B67FEF03F084B884EF03F060EF02F0AE
:1004D00084B689EF03F084B88EEF03F068EF02F082
:1004E00084B693EF03F084B898EF03F070EF02F056
:1004F00084B69DEF03F084B8A2EF03F078EF02F02A
:1005000084B6A7EF03F084B8ACEF03F080EF02F0FD
:1005100084B6B1EF03F084B8B6EF03F088EF02F0D1
:1005200084B6BBEF03F084B8C0EF03F090EF02F0A5
:1005300084B6C5EF03F084B8CAEF03F098EF02F079
:1005400084B6CFEF03F084B8D4EF03F0A0EF02F04D
:1005500084B6D9EF03F084B8DEEF03F0A8EF02F021
:1005600084B6E3EF03F084B8E8EF03F0B0EF02F0F5
:1005700084B6EDEF03F084B8F2EF03F0B8EF02F0C9
:1005800084B6F7EF03F084B8FCEF03F0C0EF02F09D
:1005900084B601EF04F084B806EF04F0C8EF02F06F
:1005A00084B60BEF04F0D0EF02F012EF04F012006B
:1005B00084B6D8EF02F07BEF00F084B8DDEF02F0F4
:1005C0003DEF01F084B6E2EF02F081EF00F084B875
:1005D000E7EF02F037EF01F084B6ECEF02F087EFBF
:1005E00000F084B8F1EF02F031EF01F084B6F6EFDD
:1005F00002F08FEF00F084B8FBEF02F02BEF01F078
:1006000084B600EF03F095EF00F084B805EF03F037
:1006100023EF01F084B60AEF03F09BEF00F084B8FB
:100620000FEF03F01DEF01F003EF02F084B616EFB9
:1006300003F0A1EF00F084B81BEF03F017EF01F017
:1006400084B620EF03F0A9EF00F084B825EF03F0A3
:1006500011EF01F084B62AEF03F0AFEF00F084B899
:100660002FEF03F009EF01F084B634EF03F0B5EF9C
:1006700000F084B839EF03F003EF01F084B63EEFE9
:1006800003F0BBEF00F084B843EF03F0FDEF00F0A0
:1006900084B648EF03F0C3EF00F084B84DEF03F0E9
:1006A000F7EF00F084B652EF03F0C9EF00F084B822
:1006B00057EF03F0EFEF00F084B65CEF03F0CFEFFD
:1006C00000F084B861EF03F0E9EF00F084B666EF64
:1006D00003F0D5EF00F084B86BEF03F0E3EF00F028
:1006E00084B870EF03F0DDEF00F084B675EF03F02F
:1006F000D5EF00F084B87AEF03F0E3EF00F084B6B2
:100700007FEF03F0CFEF00F084B884EF03F0E9EF60
:1007100000F084B689EF03F0C9EF00F084B88EEFE3
:1007200003F0EFEF00F084B693EF03F0C3EF00F0B7
:1007300084B898EF03F0F7EF00F084B69DEF03F074
:10074000BBEF00F084B8A2EF03F0FDEF00F084B639
:10075000A7EF03F0B5EF00F084B8ACEF03F003EFC0
:1007600001F084B6B1EF03F0AFEF00F084B8B6EF5C
:1007700003F009EF01F084B6BBEF03F0A9EF00F03E
:1007800084B8C0EF03F011EF01F084B6C5EF03F0B9
:10079000A1EF00F084B8CAEF03F017EF01F084B6C0
:1007A000CFEF03F09BEF00F084B8D4EF03F01DEF20
:1007B00001F084B6D9EF03F095EF00F084B8DEEFD6
:1007C00003F023EF01F084B6E3EF03F08FEF00F0C6
:1007D00084B8E8EF03F02BEF01F084B6EDEF03F0FF
:1007E00087EF00F084B8F2EF03F031EF01F084B648
:1007F000F7EF03F081EF00F084B8FCEF03F037EF80
:1008000001F084B601EF04F07BEF00F084B806EF4E
:1008100004F03DEF01F084B60BEF04F075EF00F04B
:1008200002EF00F067EF00F062EC00F06EEF00F016
:1008300019EC00F075EF00F045EF01F012EF04F055
:020840000000B6
:020000040030CA
:0100010006F8
:0100020019E4
:010003001EDE
:010005008377
:010006008178
:00000001FF
